:1000000019C033C032C031C030C02FC02EC02DC087
:100010002CC02BC02AC086C028C070C026C025C0F6
:1000200024C058C022C021C020C01FC01EC01DC097
:100030001CC01BC011241FBECFEFD4E0DEBFCDBF5C
:1000400011E0A0E0B1E0E0E2F2E002C005900D9224
:10005000A031B107D9F721E0A0E1B1E001C01D92C4
:10006000A231B207E1F7A9D0D9C0CACF109280005F
:10007000109281001092820010926F009091810086
:10008000892B809381006115710531F480916F0097
:10009000816080936F000895709389006093880059
:1000A0008091810088608093810080916F008260E0
:1000B00080936F00089580E184B985B980E48CBD98
:1000C0008CB580688CBD08958EBD0DB407FCFDCF46
:1000D0008EB508951F920F920FB60F9211248F9331
:1000E0009F938EB590E090931101809310019F91A2
:1000F0008F910F900FBE0F901F9018951F920F9227
:100100000FB60F9211240F900FBE0F901F901895ED
:10011000803130F4E82FF0E0E050FF4F8081089507
:1001200088E008951F920F920FB60F9211248F93BB
:100130009F93EF93FF9386B1813019F18091100165
:100140009091110197FD32C095958795959587956A
:100150009595879595958795803188F4E82FF0E0FF
:10016000E050FF4F80818BB981E088B9FF91EF911A
:100170009F918F910F900FBE0F901F90189588E060
:10018000F2CF80911001909111018F70907897FDBE
:100190000FC0803148F4E82FF0E0E050FF4F80813D
:1001A0008BB982E088B9E2CF88E0FACF0F96CCCF46
:1001B0000197806F9F6F0196ECCFF8948FEF87B90E
:1001C0008AB990E194B995B990E49CBD9CB59068CA
:1001D0009CBD1092800010928100109282001092BB
:1001E0006F00909181009160909381002FEF3FE02C
:1001F00030938900209388009091810098609093BB
:10020000810090916F00926090936F001BB888B945
:10021000789483E08A95F1F70000FBCFF894FFCF44
:10022000D711CB5B1D5EDE13DF1F9FDCC6D9CE8EE0
:00000001FF
