:020000040800F2
:1000000000A000207D260008AD090008AF09000807
:10001000B1090008B3090008B50900080000000094
:10002000000000000000000000000000B709000808
:10003000B909000800000000BB090008BD0900085C
:10004000CD260008CD260008CD260008CD260008C4
:10005000CD260008CD260008CD260008CD260008B4
:10006000CD260008CD260008CD260008CD260008A4
:10007000CD260008CD260008CD260008CD26000894
:10008000CD260008CD260008CD260008000000007F
:10009000000000000000000000000000CD26000865
:1000A000CD260008CD260008CD260008CD26000864
:1000B000CD2600080000000000000000CD2600084A
:1000C000CD260008CD260008CD260008CD26000844
:1000D000CD260008CD260008CD260008CD26000834
:1000E000CD260008CD26000800000000000000001A
:1000F0000000000000000000000000000000000000
:1001000000000000000000000000000000000000EF
:100110000000000000000000CD26000800000000E4
:10012000CD260008CD260008CD260008CD260008E3
:10013000CD260008000000000000000000000000C4
:10014000CD260008CD260008CD260008CD260008C3
:10015000CD260008CD260008CD260008CD260008B3
:10016000CD260008CD260008000000000000000099
:1001700000000000CD260008000000000000000084
:10018000CD260008CD260008CD260008000000007E
:100190000348044B834202D0034B03B11847704716
:1001A0001000002010000020000000000548064953
:1001B0000B1AD90F01EBA301491002D0034B03B175
:1001C00018477047100000201000002000000000B9
:1001D00010B5064C237843B9FFF7DAFF044B13B18F
:1001E0000448AFF300800123237010BD10000020ED
:1001F00000000000D026000808B5044B1BB10449DC
:100200000448AFF30080BDE80840CFE700000000DD
:1002100014000020D026000870B50D4E0D4D761B41
:10022000B61006D00024013455F8043B9847A64286
:10023000F9D1094E094D761B02F04AFAB61006D0E4
:100240000024013455F8043B9847A642F9D170BD0B
:1002500048270008482700084C27000848270008BE
:10026000F0B4860746D0541E002A3CD0CAB20346DA
:1002700002E014F1FF3436D303F8012B9D07F8D1C7
:10028000032C29D9CDB245EA05250F2C45EA0545B1
:1002900033D9A4F11006360903F1200707EB06173E
:1002A00003F1100242E9045542E902551032BA4204
:1002B000F8D1721C14F00C0F03EB021204F00F06BD
:1002C00013D0331F23F003030433134442F8045BB9
:1002D0009342FBD106F003042CB1C9B21C4403F8CD
:1002E000011B9C42FBD1F0BC704734461346002CE6
:1002F000F3D1F8E714460346C2E71A462646E0E77C
:1003000053B94AB9002908BF00281CBF4FF0FF317C
:100310004FF0FF3000F06EB9ADF1080C6DE904CE7E
:1003200000F006F8DDF804E0DDE9022304B07047D0
:100330002DE9F047089D04468C46002B40F0838051
:100340008A42174647D9B2FA82F242B1C2F120007E
:1003500024FA00F09140974040EA010C94404FEAA3
:100360001748230CBCFBF8F61FFA87FE08FB16C1E2
:1003700043EA014306FB0EF1994209D9FB1806F145
:10038000FF3080F01981994240F21681023E3B44D1
:100390005B1AA4B2B3FBF8F008FB103344EA034441
:1003A00000FB0EFEA64509D93C1900F1FF3380F091
:1003B0000581A64540F2028102383C4440EA0640ED
:1003C000A4EB0E0400261DB1D4400023C5E9004370
:1003D0003146BDE8F08702B9FFDEB2FA82F2002AA8
:1003E00050D1CB1B4FEA174E1FFA87F80126B3FBFB
:1003F000FEFC210C0EFB1C3341EA034108FB0CF30D
:100400008B4207D979180CF1FF3002D28B4200F2EF
:10041000E9808446C91AA3B2B1FBFEF00EFB1011AD
:1004200043EA014408FB00F8A04507D93C1900F154
:10043000FF3302D2A04500F2D9801846A4EB08048D
:1004400040EA0C40BFE78B4209D9002D00F0B18093
:100450000026C5E9000130463146BDE8F087B3FA11
:1004600083F6002E4AD18B4202D3824200F2B8803A
:10047000841A61EB030101208C46002DA8D0C5E948
:10048000004CA5E7C2F1200320FA03F6974001FAD9
:1004900002F04FEA174ED9403043030CB1FBFEF691
:1004A0001FFA87F80EFB161143EA014306FB08F119
:1004B000994204FA02F409D9FB1806F1FF3C80F0D6
:1004C0008D80994240F28A80023E3B445B1A81B2A1
:1004D000B3FBFEF00EFB103341EA034100FB08F3CF
:1004E0008B4207D9791800F1FF3C73D28B4271D946
:1004F00002383944CB1A40EA064678E7C6F1200CA8
:1005000003FA06F422FA0CF31C4320FA0CF701FA62
:1005100006F34FEA144E21FA0CF11F433B0CB1FBDA
:10052000FEF91FFA84F80EFB191143EA014109FB99
:1005300008FA8A4502FA06F200FA06F308D96118A9
:1005400009F1FF3048D28A4546D9A9F10209214470
:10055000A1EB0A01BFB2B1FBFEF00EFB101147EA9E
:10056000014700FB08F8B84507D9E71900F1FF314A
:100570002ED2B8452CD90238274440EA0940A7EBCF
:100580000807A0FB02894F45C64649461AD317D033
:100590005DB1B3EB0E0267EB010707FA0CFCF2400A
:1005A0004CEA0202F740C5E9002700263146BDE8C3
:1005B000F0872E4628460BE70646E9E61846FDE694
:1005C0004345E5D2B8EB020E69EB04010138DFE7E1
:1005D0000846D2E760468DE78146B9E7664675E78B
:1005E00030464AE7ACF1020C394413E702383C4488
:1005F00024E700BF704700BF30B589B000240394E2
:100600000494059406940794174BDA6C42F00402A4
:10061000DA64DA6C02F004020092009ADA6C42F0BA
:100620000102DA64DA6C02F001020192019ADA6CDA
:1006300042F00202DA64DB6C03F002030293029BD5
:100640000A4D22460821284601F05CFC082303934A
:100650000123049305940223069303A9284601F07D
:100660008DFB09B030BD00BF0010024000040048FF
:100670000F2809D8DFE800F0280A0C0E1012141613
:10068000181A1C1E20222426002070473120704793
:100690003220704733207047342070473520704730
:1006A0003620704737207047382070473920704710
:1006B00041207047422070474320704744207047D4
:1006C00045207047462070473020704730B583B0D2
:1006D00005460C460023002C13DBA00025FA00F091
:1006E00000F00F00FFF7C4FF8DF807000A23012276
:1006F0000DF10701044801F0CBFE034608B9013CA7
:10070000E9E7184603B030BD9400002000B583B07F
:100710008DF807000A2301220DF10701024801F0BC
:10072000B7FE03B05DF804FB9400002008B5014655
:1007300000228B5C0BB10132FBE70A2392B2024824
:1007400001F0A6FE08BD00BF9400002008B572B6F7
:100750000821034801F0DBFB642000F0F1FCF7E71F
:100760000004004808B51148114B03604FF4827330
:100770004360002383604FF4E062C26002220261A2
:10078000012242614FF4802282611822C261036219
:10079000436283620722C26203630823436300F05B
:1007A000A6FA00B908BDFFF7D1FF00BF3000002056
:1007B0000030014008B50B480B4B03604FF4E133A8
:1007C000436000238360C36003610C224261836144
:1007D000C3610362436201F0FCFE00B908BDFFF78C
:1007E000B5FF00BF940000200044004000B5A5B054
:1007F0004422002113A8FFF733FD00210E910F9131
:10080000109111911291342201A8FFF729FD01F0F6
:1008100087FB1D4AD2F8903023F01803C2F89030BD
:100820004FF4007001F08CFB30BB142313930123B1
:1008300015931A9300231B93A0221C921E9313A8B6
:1008400000F034FDD0B90F230E9300230F931093C3
:100850001193129301210EA801F096F880B902239A
:1008600001930023039301A801F066F950B901F048
:100870007DFA25B05DF804FBFFF768FFFFF766FF20
:10088000FFF764FFFFF762FF0010024010B584B06D
:1008900000F034FCFFF7AAFFFFF7AEFEFFF762FFA0
:1008A000FFF788FF3C4C00220821204601F02AFB7C
:1008B0000A2000F045FC01220821204601F022FB1D
:1008C00000238DF80D308DF80E3020E0FFF73EFF4D
:1008D000324A1368013313602F4C0022082120464E
:1008E00001F010FB4FF4FA7000F02AFC01220821FD
:1008F000204601F007FB4FF4FA7000F021FC0A20BB
:1009000000F01EFC9DF80E3001338DF80E302448A7
:10091000FFF70CFF0421214B1868FFF7D7FE2F24A7
:100920008DF80F40642301220DF10F011D4801F0E5
:10093000AFFD01219DF80E00FFF7C8FE2046FFF72E
:10094000E5FE002210214FF0904001F0DBFA642315
:10095000009301230DF10D020DF10E01124800F07C
:1009600035FA0446012210214FF0904001F0CAFAF6
:10097000002CABD101219DF80D00FFF7A7FE0A2046
:10098000FFF7C4FE9DF80D109DF80E305A1E9142DF
:10099000B5D0002BB3D09BE7000400482C0000200A
:1009A000E82600089400002030000020FEE7FEE763
:1009B000FEE7FEE7FEE770477047704708B500F0B6
:1009C000ADFB08BD82B00A4B1A6E42F001021A66F6
:1009D0001A6E02F001020092009A9A6D42F0805263
:1009E0009A659B6D03F080530193019B02B07047A1
:1009F0000010024000B589B00023039304930593CF
:100A0000069307930268154B9A4202D009B05DF82D
:100A100004FB03F560431A6E42F480521A661A6EA4
:100A200002F480520192019ADA6C42F00102DA6417
:100A3000DB6C03F001030293029BD2230393022396
:100A4000049300230593032306930523079303A927
:100A50004FF0904001F092F9D8E700BF003001401C
:100A600070B588B00023039304930593069307930E
:100A700002681A4B9A4201D008B070BD03F5E63304
:100A80009A6D42F400329A659A6D02F40032019236
:100A9000019ADA6C42F00102DA64DB6C03F00103C4
:100AA0000293029B042303930226049600250595D6
:100AB000032406940723079303A94FF0904001F005
:100AC0005DF94FF40043039304960595069407944B
:100AD00003A94FF0904001F051F9CDE700440040E8
:100AE0002DE9F04782B00546884617461E4600F0BD
:100AF00021FB0A9B1B1A03EB060900F01BFB824635
:100B00002A4B1B68C3F3CB3309FB03F301932B6818
:100B10009C6838EA04030CBF01240024BC4240D086
:100B2000B6F1FF3FF3D000F005FBA0EB0A0048450B
:100B30000AD2B9F1000F07D0019A02B14A46019BCF
:100B4000013B01939146E2E72A68536823F0E003F2
:100B500053606B68B3F5827F0BD0AB6AB3F5005F6F
:100B600014D0012385F85D30002385F85C30032024
:100B700018E0AB68B3F5004F02D0B3F5806FECD14D
:100B80002A68136823F040031360E6E72A681368B5
:100B900023F4005313602A68136843F4005313606E
:100BA000DFE7002002B0BDE8F08700BF08000020AA
:100BB0002DE9F04782B007460D461646984600F0EC
:100BC000B9FA0A9B1B1A03EB080900F0B3FA824634
:100BD0002D4B1B6803EB8303C3EBC3031B0D09FB06
:100BE00003F3019302E0B8F1FF3F0BD13B689C682F
:100BF0002C40B44244D0B5F5C06FF4D1002EF2D1F0
:100C00001B7BF0E700F096FAA0EB0A0048450AD2F9
:100C1000B9F1000F07D0019A02B14A46019B013B8E
:100C200001939146E2E73A68536823F0E00353608A
:100C30007B68B3F5827F0BD0BB6AB3F5005F14D03D
:100C4000012387F85D30002387F85C30032018E02B
:100C5000BB68B3F5004F02D0B3F5806FECD13A68B2
:100C6000136823F040031360E6E73A68136823F43F
:100C7000005313603A68136843F400531360DFE7CE
:100C8000002002B0BDE8F0870800002070B582B0F7
:100C900004460D46164600920B4600224FF4C05102
:100CA000FFF786FFB0B900962B4600228021204630
:100CB000FFF716FFA8B900962B4600224FF4C0613B
:100CC0002046FFF775FF50B1236E43F020032366E3
:100CD000032004E0236E43F020032366032002B0C8
:100CE00070BD236E43F0200323660320F7E700283E
:100CF0006AD010B50446436A33B94368B3F5827FBE
:100D000005D00023C36102E0002303614361002397
:100D1000A36294F85D30002B4DD0022384F85D303F
:100D20002268136823F040031360E368B3F5E06FB3
:100D300047D90022B3F5706F04D0B3F5E06F01D04E
:100D40000023A362636803F48273A16801F4044181
:100D50000B43216901F002010B43616901F00101BC
:100D60000B43A16901F400710B43E16901F0380103
:100D70000B43216A01F080010B43A16A01F4005189
:100D800020680B430360638B03F00403616A01F086
:100D900010010B43616B01F008010B43E16801F4A2
:100DA00070610B43216813434B60002020660123D0
:100DB00084F85D3010BD84F85C302046FFF71AFEE1
:100DC000ABE74FF48052B5E7012070472DE9F843B7
:100DD0001F46089D90F85C30012B00F064810446AA
:100DE00088469146012380F85C3000F0A3F906465E
:100DF00094F85D30DBB26268012B0AD0B2F5827FD5
:100E000040F03881A268002A40F03D81042B40F078
:100E10003C81B8F1000F00F03A81B9F1000F00F009
:100E20003881002F00F0378194F85D30DBB2042B5D
:100E300002D0052384F85D3000232366C4F8409077
:100E4000A4F84670A4F84470C4F83880E787A787F0
:100E5000E3642365E368B3F5E06F01D8012F23D97C
:100E60002268536823F48053536023681A6812F091
:100E7000400F03D11A6842F040021A60E368B3F5EC
:100E8000E06F58D963680BB1012F0BD1A26B2368B7
:100E90001288DA60A36B0233A363E38F9BB2013B3A
:100EA0009BB2E387012725E02268536843F480530F
:100EB0005360DAE723689A6812F0010F11D0B4F892
:100EC000462092B26AB1DA68236C1A80236C02332E
:100ED0002364B4F846309BB2013B9BB2A4F8463081
:100EE000012700F027F9831BAB4203D3B5F1FF3F85
:100EF00040F0D380E38F9BB22BB9B4F846309BB25D
:100F0000002B00F0AD8023689A6812F0020FD1D058
:100F1000E28F92B2002ACDD0002FCBD0A26B1288E4
:100F2000DA60A36B0233A363E38F9BB2013B9BB2F6
:100F3000E3870027BEE763680BB1012F0FD1E38F72
:100F40009BB2012B0DD9A26B23681288DA60A36BC8
:100F50000233A363E38F9BB2023B9BB2E38701277B
:100F600049E0A26B236812781A73A36B0133A36361
:100F7000E38F9BB2013B9BB2E387F0E7E28F92B233
:100F8000012A0CD9A26B1288DA60A36B0233A36327
:100F9000E38F9BB2023B9BB2E38700273DE0A26B4D
:100FA00012781A73A36B0133A363E38F9BB2013BE7
:100FB0009BB2E387002730E02268536843F48053F4
:100FC000536001270DE0226C1B7B1370236C0133EF
:100FD0002364B4F846309BB2013B9BB2A4F8463080
:100FE000012700F0A7F8801BA84202D3B5F1FF3F0C
:100FF00055D1002D55D0E38F9BB223B9B4F84630BC
:101000009BB2002B2CD023689A6812F0020F04D0F8
:10101000E28F92B20AB1002FB0D123689A6812F021
:10102000010FDED0B4F8462092B2002AD9D0B4F82D
:10103000462092B2012AC6D9DA68236C1A80236C42
:1010400002332364B4F846309BB2023B9BB2A4F84F
:101050004630B4F846309BB2012BADD90127C0E72A
:10106000324629462046FFF711FE20B12023236691
:10107000012000E00220012384F85D30002384F881
:101080005C30BDE8F8830220F5E70220F3E7012099
:10109000F1E70120EFE70120EDE70320EBE7032074
:1010A000E9E70320E7E70220EBE70000104B1B789D
:1010B0000BB90120704710B504464FF47A70B0FBAD
:1010C000F3F30C4A1068B0FBF3F000F0C7FF68B907
:1010D0000F2C01D901200AE0002221464FF0FF30F9
:1010E00000F088FF044B1C60002000E0012010BDD0
:1010F00000000020080000200400002010B503209C
:1011000000F066FF0020FFF7D1FF10B10124204658
:1011100010BD0446FFF756FCF9E70000034B1B78AF
:10112000034A11680B441360704700BF00000020A1
:1011300014010020014B1868704700BF1401002003
:1011400038B50446FFF7F6FF0546B4F1FF3F02D07D
:10115000044B1B781C44FFF7EDFF401BA042FAD361
:1011600038BD00BF0000002030B583B00446204BDE
:101170009B6D13F0805F0BD000F0DAFEB0F5007FBE
:1011800017D0802C1FD82DD0702C2DD000211BE023
:10119000174DAB6D43F08053AB65AB6D03F08053DF
:1011A0000193019B00F0C4FEAB6D23F08053AB654F
:1011B000E4E7802C03D9A02C03D9022104E000210C
:1011C00002E0012100E003210A4A136823F007032B
:1011D0000B431360136803F007038B4206D1002012
:1011E00003B030BD0221EFE70121EDE70120F7E771
:1011F0000010024000200240284A9368D26802F0A2
:10120000030213F00C030AD00C2B06D0042B1FD0C2
:10121000082B20D00020024610E0012AF6D11F4AF8
:10122000126812F0080F0CD11C4AD2F89420C2F3B5
:1012300003221B4951F8222043B100200C2B0DD072
:101240007047164A1268C2F30312F2E71046F5E738
:1012500014480022F2E714480022EFE70F4BDB6846
:1012600003F00303022B16D0032B00D10E4A0B4BC5
:10127000D868C0F302100130D968C1F3062102FB1F
:1012800001F2B2FBF0F2D868C0F3416001304000D7
:10129000B2FBF0F0D4E7034AE9E700BF00100240D8
:1012A0000C2700080024F40000127A00002800F047
:1012B0005483F0B583B00446964B9D6805F00C0549
:1012C000DE6806F00306036813F0100F5AD0E5B18C
:1012D0000C2D18D0E369002B00F0BB808D4A1368F9
:1012E00043F001031360FFF725FF0746894B1B6896
:1012F00013F0020F40F09A80FFF71CFFC01B02287A
:10130000F4D9032036E3012EE4D1824B1B6813F09D
:10131000020F03D0E369002B00F02183606A7D4B4C
:101320001B6813F0080F5BD07A4B1B6803F0F003C7
:1013300098425CD8774B1A6842F008021A601A6823
:1013400022F0F002616A0A431A605A6822F47F426E
:10135000216A42EA01225A60002D60D0FFF74CFF5B
:101360006C4B9B68C3F303136B4AD35C03F01F03FE
:10137000D8406A4B18606A4B1868FFF797FE002840
:1013800040F0F882236813F0010F00F08180082DEF
:1013900075D00C2D71D06368B3F5803F00F0988054
:1013A000B3F5A02F00F09A805A4B1A6822F48032CD
:1013B0001A601A6822F480221A606368002B00F019
:1013C0009A80FFF7B7FE0746524B1B6813F4003FA5
:1013D0005ED1FFF7AFFEC01B6428F5D90320C9E238
:1013E0004C4BD3F894301B0903F0F003A0E7FFF750
:1013F000BBFE002840F0B582464B1A6842F0080256
:101400001A601A6822F0F002616A0A431A605A6888
:1014100022F47F42216A42EA01225A609EE7606A12
:10142000FFF7A2FE002899D00120A3E2394B1A68E9
:1014300042F008021A601A6822F0F002616A0A4358
:101440001A605A6822F47F42216A42EA01225A60F5
:1014500098E7304A136823F001031360FFF76AFE30
:1014600007462C4B1B6813F0020F8BD0FFF762FE70
:10147000C01B0228F5D903207CE2032E8BD1254B1B
:101480001B6813F4003F03D06368002B00F06B82ED
:10149000236813F0020F58D0042D45D00C2D41D0F5
:1014A000E368002B00F091801A4A136843F48073BC
:1014B0001360FFF73FFE0646164B1B6813F4806F60
:1014C0007AD1FFF737FE801B0228F5D9032051E2BD
:1014D000104A136843F4803313606EE703F18043CE
:1014E000A3F53C331A6842F480221A601A6842F469
:1014F00080321A6061E7FFF71DFE0746054B1B6847
:1015000013F4003FC4D0FFF715FEC01B6428F5D9C3
:1015100003202FE200100240F426000808000020FB
:1015200004000020022EBBD1AF4B1B6813F4806F68
:1015300003D0E368002B00F01882AB4A536823F015
:10154000FE43216943EA01635360236813F0080FE7
:101550007DD06369002B63D0A34BD3F89430A1698D
:1015600003F01002914210D003F00302022A00F0AF
:10157000FE8113F0010F3CD19B4AD2F8943023F046
:101580001003A1690B43C2F89430974AD2F8943003
:1015900043F00103C2F89430FFF7CCFD0646924BAE
:1015A000D3F8943013F0020F51D1FFF7C3FD801B25
:1015B0001128F4D90320DDE18B4A536823F0FE4360
:1015C000216943EA01635360BFE7874A136823F444
:1015D00080731360FFF7AEFD0646834B1B6813F460
:1015E000806FB2D0FFF7A6FD801B0228F5D903203B
:1015F000C0E17D4AD2F8943023F00103C2F8943060
:10160000FFF798FD0646784BD3F8943013F0020F9D
:10161000B2D0FFF78FFD801B1128F4D90320A9E178
:10162000714AD2F8943023F00103C2F89430FFF7E6
:1016300081FD06466C4BD3F8943013F0020F06D0B0
:10164000FFF778FD801B1128F4D9032092E123686D
:1016500013F0040F00F08D80634B9B6D13F0805FDF
:101660002ED1614B9A6D42F080529A659B6D03F0CA
:1016700080530193019B01265C4B1B6813F4807F10
:1016800020D0A36813F0010F38D05749D1F890202B
:1016900022F0800203F080031343C1F89030A36866
:1016A00013F0040F22D0D1F8902042F00402C1F8C8
:1016B0009020D1F8902042F00102C1F890202AE059
:1016C0000026D9E7494A136843F480731360FFF793
:1016D00031FD0746454B1B6813F4807FD1D1FFF7DE
:1016E00029FDC01B0228F5D9032043E13E4AD2F868
:1016F000903043F00103C2F890300CE03A4BD3F83D
:10170000902022F00102C3F89020D3F8902022F01C
:101710000402C3F89020A3688BB1FFF70BFD0746C6
:10172000314BD3F8903013F0020F21D1FFF702FDB7
:10173000C01B41F288339842F2D903201AE1FFF727
:10174000F9FC0746284BD3F8903013F0020F08D06D
:10175000FFF7F0FCC01B41F288339842F2D9032016
:1017600008E1214AD2F8903023F08003C2F890308B
:10177000E6B9236813F0200F3AD0A36AE3B11A4AFE
:10178000D2F8983043F00103C2F89830FFF7D2FC4A
:101790000646154BD3F8983013F0020F28D1FFF707
:1017A000C9FC801B0228F4D90320E3E00E4A936DA4
:1017B00023F080539365DCE70B4AD2F8983023F08E
:1017C0000103C2F89830FFF7B5FC0646064BD3F884
:1017D000983013F0020F0BD0FFF7ACFC801B0228EF
:1017E000F4D90320C6E000BF0010024000700040A2
:1017F000E36A002B00F0BD80022B1FD00C2D00F0FF
:10180000BD805F4B1A6822F080721A60DA6822F09D
:101810000302DA60DA6822F08872DA60FFF78AFC85
:101820000446574B1B6813F0007F00F09480FFF7CD
:1018300081FC001B0228F4D903209BE0504BDB689D
:1018400003F00301226B914216D00C2D00F094801E
:101850004B4A136823F080731360FFF76BFC054657
:10186000474B1B6813F0007F2AD0FFF763FC401B37
:101870000228F5D903207DE003F07002616B013985
:10188000B2EB011FE1D103F4FE42A16BB2EB012FD9
:10189000DBD103F4C001E26B5208013AB1EB425FC5
:1018A000D3D103F0C063226C5208013AB3EB426F0C
:1018B000CBD1334B1B6813F0007F32D0002059E0AE
:1018C0002F4AD3682F491940236B606B013843EAD4
:1018D0000013A06B43EA0023E06B4008013843EAA1
:1018E0004053206C4008013843EA40630B43D36007
:1018F000136843F080731360D36843F08073D36040
:10190000FFF718FC04461E4B1B6813F0007F06D13E
:10191000FFF710FC001B0228F5D903202AE0002065
:1019200028E0174B1A6842F080721A60DA6842F0B9
:101930008072DA60FFF7FEFB0446114B1B6813F060
:10194000007F06D1FFF7F6FB031B022BF5D903201E
:1019500010E000200EE000200CE001207047012084
:1019600008E0012006E0012004E0012002E001205F
:1019700000E0002003B0F0BD0120FBE70120F9E703
:10198000001002408C809FF9002800F0988070B50C
:101990000C4605464E4B1B6803F007038B420BD2E7
:1019A0004B4A136823F007030B431360136803F0DB
:1019B00007038B4240F085802B6813F0010F39D06C
:1019C0006B68032B09D0022B26D063BB414A1268F7
:1019D00012F0020F06D1012070E03E4A126812F0A8
:1019E000007F70D03B498A6822F0030213438B606A
:1019F000FFF7A0FB0646374B9B6803F00C036A68B1
:101A0000B3EB820F16D0FFF795FB801B41F28833B2
:101A10009842F0D9032051E02E4A126812F4003F98
:101A2000E0D101204AE02B4A126812F4806FD9D12C
:101A3000012043E02B6813F0020F06D0254A93687B
:101A400023F0F003A9680B439360214B1B6803F05C
:101A50000703A3420AD91E4A136823F0070323434E
:101A60001360136803F00703A3422ED12B6813F011
:101A7000040F06D0174A936823F4E063E9680B4328
:101A800093602B6813F0080F07D0124A936823F471
:101A90006053296943EAC1039360FFF7ADFB0D4B27
:101AA0009B68C3F303130C4AD35C03F01F03D840B5
:101AB0000A4B18600A4B1868FFF7F8FA70BD01204E
:101AC00070470120FAE70120F8E70120F6E700BFA0
:101AD0000020024000100240F42600080800002008
:101AE00004000020014B1868704700BF0800002068
:101AF00008B5FFF7F7FF054B9B68C3F30223044AC1
:101B0000D35C03F01F03D84008BD00BF00100240A3
:101B10000427000808B5FFF7E5FF054B9B68C3F3F2
:101B2000C223044AD35C03F01F03D84008BD00BFA2
:101B30000010024004270008F0B583B00446036893
:101B400013F4003F69D0874B9B6D13F0805F1ED16B
:101B5000844B9A6D42F080529A659B6D03F08053DE
:101B60000193019B0126804A136843F4807313603C
:101B7000FFF7E0FA05467C4B1B6813F4807F08D121
:101B8000FFF7D8FA401B0228F5D9032502E000260A
:101B9000E9E7002545BB734BD3F8903013F440734D
:101BA00015D0226B9A4212D06E4AD2F8903023F4AC
:101BB0004073D2F8901041F48031C2F89010D2F8FE
:101BC000901021F48031C2F89010C2F8903013F0D8
:101BD000010F10D145B9634AD2F8903023F4407315
:101BE000216B0B43C2F89030C6B15E4A936D23F06F
:101BF0008053936512E0FFF79DFA0746594BD3F8DF
:101C0000903013F0020FE5D1FFF794FAC01B41F2B8
:101C100088339842F2D90325DCE70025236813F0C6
:101C2000010F08D04F4AD2F8883023F003036168CF
:101C30000B43C2F88830236813F0020F08D0494ADA
:101C4000D2F8883023F00C03A1680B43C2F8883027
:101C5000236813F0040F08D0424AD2F8883023F0EA
:101C60003003E1680B43C2F88830236813F0200F7B
:101C700008D03C4AD2F8883023F4406321690B43F2
:101C8000C2F88830236813F4007F08D0354AD2F8B0
:101C9000883023F44023216A0B43C2F8883023683C
:101CA00013F4806F08D02F4AD2F8883023F4401301
:101CB000616A0B43C2F88830236813F0400F08D0E4
:101CC000284AD2F8883023F4405361690B43C2F8A4
:101CD0008830236813F0800F08D0224AD2F8883069
:101CE00023F44043A1690B43C2F88830236813F4FE
:101CF000807F08D01B4AD2F8883023F44033E16952
:101D00000B43C2F88830236813F4005F0CD0154AE7
:101D1000D2F8883023F04063A16A0B43C2F88830C0
:101D2000A36AB3F1006F13D0236813F4802F0CD093
:101D30000C4AD2F8883023F04063E16A0B43C2F8C2
:101D40008830E36AB3F1006F07D0284603B0F0BDD6
:101D5000D36843F48013D360E6E7D36843F4801379
:101D6000D360F2E70010024000700040024A13689E
:101D700043F004031360704700100240F0B583B0D5
:101D8000002336E0032400E00024B4403C43023545
:101D9000584E46F82540584C2568D44325EA02069B
:101DA0004F6817F4803F01D042EA0506524D2E607D
:101DB0006D6804EA05064F6817F4003F01D042EA57
:101DC00005064D4D6E60AD6804EA05064F6817F4D0
:101DD000801F01D042EA0506474DAE60ED682C40F9
:101DE0004E6816F4001F01D042EA0504424AD4604E
:101DF00001330A6832FA03F47AD001249C4022406D
:101E0000F6D04D686E1E012E03D9112D01D0122D72
:101E100012D186685F000325BD4026EA0506CD681D
:101E2000BD4035438560466826EA04064D68C5F323
:101E300000149C4034434460C7685E000325B540ED
:101E4000EC4327EA05078D68B5403D43C5604D6802
:101E5000022D01D0122D13D1DF08083750F827E0EA
:101E600003F007054FEA850C0F2505FA0CF52EEA5D
:101E7000050E0D6905FA0CF545EA0E0540F82750E8
:101E8000056825404C6804F00304B4402C4304600A
:101E90004C6814F0805FABD0184C256E45F00105FE
:101EA0002566246E04F001040194019C9D08AE1C7B
:101EB000104C54F8267003F00304A6000F24B4401D
:101EC00027EA0407B0F1904F3FF45EAF0C4CA042FC
:101ED0000AD004F58064A04208D004F58064A042D2
:101EE0003FF450AF072450E701244EE702244CE7AB
:101EF00003B0F0BD000001400004014000100240AA
:101F0000000400480AB181617047816270474369EB
:101F100001EA030221EA030141EA024181617047BB
:101F2000024A136843F480731360704700700040E6
:101F3000024B186800F4C060704700BF007000409A
:101F4000B0F5007F0FD01F4B1B6803F4C063B3F5DF
:101F5000806F34D01B4A136823F4C06343F480635A
:101F6000136000207047174B1B6803F4C063B3F580
:101F7000007F20D0134A136823F4C06343F4007336
:101F80001360114B1A68322303FB02F30F4AA2FBC2
:101F900003239B0C013300E0013B0A4A526912F40F
:101FA000806F01D0002BF7D1064B5B6913F4806F73
:101FB00003D10020704700207047032070470020A5
:101FC000704700BF007000400800002083DE1B4304
:101FD000074AD36823F4E0631B041B0C000200F4DF
:101FE000E060034343F0BF6343F40033D3607047C2
:101FF00000ED00E030B4174BDB68C3F30223C3F1FC
:102000000704042C28BF04241D1D062D18D9033BEA
:102010004FF0FF3505FA04F421EA0401994005FA6E
:1020200003F322EA0303194300280BDB0901C9B2B9
:1020300000F1604000F5614080F8001330BC70474B
:102040000023E5E700F00F000901C9B2024B195463
:10205000F4E700BF00ED00E014ED00E00138B0F15E
:10206000807F0AD2064B5860064AF02182F823107E
:102070000020986007221A6070470120704700BF57
:1020800010E000E000ED00E0D0B504460168836890
:102090000269134342691343C269134308689A4AA9
:1020A000024013430B602268536823F44053E168F5
:1020B0000B435360A1692268944B9A4201D0236A72
:1020C0001943936823F430630B4393602268904B69
:1020D0009A421FD08F4B9A4230D08F4B9A4246D0B3
:1020E0008A4B9A4255D0102388498A427AD0E069B7
:1020F000B0F5004F00F0A580082B00F2FB80DFE870
:1021000013F0CD00E000CB00F900E300F900F90086
:10211000F900E60003F55843D3F8883003F00303D1
:10212000032B09D8DFE803F002044A060123DBE7AA
:102130000423D9E70823D7E71023D5E703F5E633CF
:10214000D3F8883003F00C030C2B0ED8DFE803F033
:10215000070D0D0D090D0D0D380D0D0D0B00002394
:10216000C2E70423C0E70823BEE71023BCE703F55A
:10217000E433D3F8883003F03003202B22D004D886
:1021800013B3102B22D10423AEE7302B20D1082328
:10219000AAE703F5C833D3F8883003F44063B3F5F6
:1021A000006F17D005D8BBB1B3F5806F16D10423EB
:1021B0009AE7B3F5406F13D1082395E7022393E71D
:1021C000022391E702238FE700238DE710238BE79B
:1021D000102389E7022387E7002385E7102383E79D
:1021E000102381E7082B75D8DFE803F00874297401
:1021F0002674747405004FF4004003E0FFF778FC88
:10220000002869D0626802EB4203834266D8B0EBD3
:10221000023F65D80023070E06025008301847F128
:102220000001FEF76DF8A0F540723C4B9A4259D878
:102230002368D860002062E0FEF7DEFFE0E7384860
:10224000E0E7082B50D8DFE803F00721054F244FC3
:102250004F4F0B00324803E0FFF74AFC002845D0FF
:102260006268530803EB4000B0FBF2F080B2A0F1CB
:1022700010024FF6EF739A423AD820F00F03C0F3E2
:10228000420018432368D860002038E0FFF742FC82
:10229000E4E7FEF7B1FFE1E7214802E0FFF728FCA1
:1022A00050B3636800EB5300B0FBF3F080B2A0F1D1
:1022B00010024FF6EF739A4220D82368D8600020AE
:1022C0001DE0FFF727FCEBE7FEF796FFE8E74FF48A
:1022D0000040E6E7012012E0002010E001200EE0BF
:1022E00001200CE001200AE0012008E0002006E0C7
:1022F000012004E0012002E0002000E00120002392
:1023000023666366D0BD00BFF369FFEF0080004025
:10231000003801400044004000480040FFFC0F002E
:102320000024F400436A13F0010F06D002685368DA
:1023300023F40033816A0B435360436A13F0020FA6
:1023400006D00268536823F48033C16A0B4353609C
:10235000436A13F0040F06D00268536823F4802305
:10236000016B0B435360436A13F0080F06D00268F9
:10237000536823F40043416B0B435360436A13F0EB
:10238000100F06D00268936823F48053816B0B43CF
:102390009360436A13F0200F06D00268936823F419
:1023A0000053C16B0B439360436A13F0400F0AD094
:1023B0000268536823F48013016C0B435360036C71
:1023C000B3F5801F0BD0436A13F0800F06D002686C
:1023D000536823F40023816C0B43536070470268F9
:1023E000536823F4C003416C0B435360EBE72DE9C2
:1023F000F84305460F4616469946DDF820802C68BE
:10240000E46937EA04030CBF01240024B4423CD140
:10241000B8F1FF3FF3D0FEF78DFEA0EB0900404579
:1024200021D8B8F1000F1ED02B681A6812F0040FE3
:10243000E5D0DA6912F4006FE1D04FF400621A625D
:102440002A68136823F4D07313602A68936823F012
:102450000103936020236B67AB67EB67002385F86C
:102460007030032012E02A68136823F4D0731360DD
:102470002A68936823F00103936020236B67AB679E
:10248000002385F87030032000E00020BDE8F883C9
:102490002DE9F04182B01E46436F202B55D10446F2
:1024A0000D469046002954D0002A54D090F8703040
:1024B000012B52D0012380F870300023C367212301
:1024C0004367FEF737FE0746A4F85080A4F8528011
:1024D000A368B3F5805F05D04FF00008002384F8AF
:1024E000703014E0236913B14FF00008F6E7A846F6
:1024F0000025F3E738F8023B2268C3F3080313858D
:10250000B4F8522092B2013A92B2A4F85220B4F830
:1025100052309BB273B100963B4600228021204688
:10252000FFF765FFD8B9002DE4D0236815F8012B1B
:102530001A85E5E700963B46002240212046FFF73A
:1025400056FF70B92023636700E0022002B0BDE8A7
:10255000F0810120FAE70120F8E70220F6E70320E6
:10256000F4E70320F2E730B583B004460023C367E5
:10257000FEF7E0FD054623681B6813F0080F0CD139
:1025800023681B6813F0040F15D120236367A3672A
:10259000002084F8700003B030BD6FF07E430093DC
:1025A000034600224FF400112046FFF720FF0028C9
:1025B000E6D00320EFE76FF07E4300932B46002226
:1025C0004FF480012046FFF712FF0028DDD00320E2
:1025D000E1E768B310B50446436F03B32423636790
:1025E0002268136823F0010313602046FFF74CFDB7
:1025F000012813D0636ABBB92268536823F490435F
:1026000053602268936823F02A039360226813685A
:1026100043F0010313602046FFF7A5FF10BD80F8CB
:102620007030FEF71DFAD9E72046FFF77BFEE3E79F
:10263000012070470F49D1F8883043F47003C1F886
:1026400088300D4B1A6842F001021A600020986031
:102650001A6822F0A85222F410221A604FF4805215
:10266000DA601A6822F480221A6098614FF00063E1
:102670008B60704700ED00E000100240DFF834D0BE
:10268000FFF7D8FF002103E00B4B5B5843500431A8
:102690000A480B4B42189A42F6D30A4A02E000233A
:1026A00042F8043B084B9A42F9D3FDF7B5FDFEF71B
:1026B000EDF8FEE700A000205827000800000020E9
:1026C000100000201000002018010020FEE700008C
:1026D000F8B500BFF8BC08BC9E467047F8B500BF0F
:0826E000F8BC08BC9E467047DF
:1026E8007265736574733A200000000000000000F2
:1026F80000000000010203040607080900000000AA
:1027080001020304A0860100400D0300801A0600A0
:1027180000350C0040420F0080841E0000093D0077
:1027280000127A000024F40000366E010048E80127
:08273800006CDC02000000004F
:08274000F0DBFF7F0100000047
:08274800F90100080000000087
:08275000D101000800000000A7
:10275800010000001000000000093D00000000001A
:040000050800267D4C
:00000001FF
